:400000000080002011000000CD050000CD05000008B5044B1A6803F53F5302331A6000F0F5FA00BFFA46004010B5054C237833B9044B13B10448AFF300800123237010BDE4
:40004000C889FF1F000000007C700000084B10B51BB108480849AFF300800848036803B910BD074B002BFBD0BDE81040184700BF000000007C700000CC89FF1F0881FF1FD9
:40008000000000000000000070B500F0CDFE00F0D9FE002000F0DEFE40B300F0EDFE00F0F7FE4FF07F5101F06BFF064601F06CFB04460D46104822460B4602F0D9FC304601
:4000C0004FF0814102F004F980B12046294608A3D3E9002301F032FE40B14FF4FA70C82100F02AFA4FF4FA6000F0F0FC70BD00BF9A9999999999F93F88700000AFF3008076
:4001000010B586B062B600F0A9FD012000F042FD00F004F93E4800F063FD00F0BFF96420002100F003F9002430E004A800F0C6F9BDF81010BDF81220BDF81430BDF81600BB
:400140000090344802F094FCBDF8142042F6F8239A420ED9BDF812209A420AD9BDF8162042F6F7239A4204D8BDF810209A4200D80124012C0AD1BDF8162042F6F7239A4278
:4001800004D9BDF810209A4200D90224022CCCD16420322100F0CAF800F0C4F8012001E000F086F80128FBD000F0B8F8FF204FF4967100F0BBF8FFF767FF04A800F07EF923
:4001C000BDF81010BDF81220BDF81430BDF81600104C0090204602F04BFC02A800F076F9BDF80810BDF80A20BDF80C30BDF80E000090204602F03CFCBDF81400BDF81610C7
:40020000BDF81220BDF8103000F0A8F9D3E700BF9503000094700000F8B50C46174600250BE023780A2B02D10D2000F03BFD661C207800F037FD01353446BD42F1DB3846A1
:40024000F8BD00BFF8B50F461446002612E000F013FD054670B100F025FD01360D2D03D10A2000F01FFD0A257B1C3D70013C0A2D02D01F46002CEADC3046F8BD08B500F0B5
:4002800031FE0128FBD008BD10B5002400E0013400F028FE0028FAD0204610BD10B5002400E0013400F01EFE0128FAD0204610BD30B58BB0002401940294039404940594B6
:4002C0000694079408948DF82440FFF7D7FF12E0FFF7DAFF0546FFF7E1FFA84205D901220AAB234403F8242C04E000220AAB234403F8242C0134202CEAD90023184608E02A
:40030000591C0AAA0A4412F8242C02FA03F318430B461F2BF4D90BB030BD00BF08B500F0C5FB08BD08B500F059FB08BD38B504460D46002000F016FC002000F01FFC20469B
:4003400000F060FB204600F063FB284600F0BEFB38BD00BF38B50D46144600F053FB284600F056FB204600F0B1FB38BD38B504460D46012000F0F6FB012000F0FFFB204638
:4003800000F040FB204600F043FB284600F09EFB38BD00BFF8B500F033FF044600F0B6FE074600F039FE064600F0D4FF054614F0400F09D000F02AFF044600F033FF201A5D
:4003C00080B2354B988003E000F020FF324B988017F0400F09D000F09FFE044600F0A8FE201A80B22C4BD88003E000F095FE2A4BD88016F0400F09D000F014FE044600F038
:400400001DFE201A80B2244B188003E000F00AFE214B188015F0400F09D000F0A1FF044600F0AAFF201A80B21B4B588003E000F097FF194B58800C2000F04EFF012000F0E6
:400440003FFF0C2000F060FF012000F051FF0C2000F0BCFD012000F0ADFD0C2000F0E6FF012000F0D7FF0A2000F046FB022000F033FF022000F048FF022000F0A7FD02201A
:4004800000F0D4FF00F0BCFE00F040FE00F0C4FD00F060FFF8BD00BFE489FF1F08B5064800F09EFB00F0FEFE00F082FE00F006FE00F0A2FF08BD00BF950300000246024B7C
:4004C00003CB106051607047E489FF1F184B1B889BB2184A1288934202D90023038001E001230380124B5B889BB2124A5288934202D90023438001E0012343800C4B9B8803
:400500009BB20C4A9288934202D90023838001E001238380064BDB889BB2064AD288934202D90023C38070470123C380704700BFE489FF1F0C81FF1F70B505460C464E087D
:4005400000F02AFD304600F007FD204600F0FEFC284600F0BBFA00F0EBFC70BD10B541F26F74A0420AD9A14208D9A24206D9A34204D9FF200021FFF7D9FE10BD43F2C724B0
:40058000A04201D8A1420AD9FF200A21FFF7EEFEFF2000214FF4C872FFF7DCFE10BD43F2C7218A4201D88B420AD9FF200A21FFF7DDFE0020FF214FF4C872FFF7CBFE10BD5E
:4005C000FF200021FFF7B2FE10BD00BF08B502F05DF903680C2B00D1FEE7FEE708B5094B1A681044084BC31AB3F5006F02DC054B186005E002F04AF90C2303604FF0FF3257
:40060000104608BD1481FF1F488AFF1F08B5104E104D16E029686B68AC68002204E051F8040B43F8040B0432A242F8D1E868002203E0002143F8041B04328242F9D11035B2
:40064000013E002EE6D102F027F9FFF759FDFEE7010000009072000008B5124A124B1A60124A136843F40073136000230AE0032B03D80F4A52F8231000E00E490E4A42F877
:40068000231001332F2BF2D90C4B1A780C4B1A70094A0C4B1A6000F0F7F800220A4B1A6008BD00BF0004FA050CED00E014ED00E000000000CD0500000080FF1FBC760040CD
:4006C0000481FF1F08ED00E00081FF1FFEE700BFF0B40022174611E050F82760F3B226F0FF0608E001EB420511F812406D78A5550132013BDBB2002BF4D10137242FEBD90C
:40070000F0BC704708B50A46002102F063F908BD38B50122304B1A801823304A1370192502321580023213701D21023211800232137077210232118002321370EF210232E8
:4007400011800232137040F2AF4102321180023213700222224B1A7008224FF040231A70032103F5007319701E4B1B78DBB21E490B701E4B1A8041F25122023B1A800024FB
:400780000CE01B4B1B7803F0010343EA440404F003044FF4F07000F057FE013D0DB1032CEFD115B90320FFF791FF124B4FF480721A8007221A7000220F490A704820023135
:4007C00008701A700222033B1A700C4A137843F03F03137038BD00BF80400040824000400043004008010049A146004022420040254200400440004006400040A243004006
:40080000F8B5184B1B78DBB2174E3478E4B2174F3D78EDB203F00701154A11701B090132137044F00303337045F003033B708022104B1A704023104A137002321370082306
:4008400002F21D2213702021033211702D3213700A2000F051F93D7034704422074B1A70F8BD00BFCF010049F8460040F94600406E5800402D5100400959004076580040F4
:4008800008B502F031F808BD38B572B63A4A137843F00403137000240CE0384963001A1952000A4423445B00C8589188FFF72AFF0134E4B2072CF0D900240BE02F49A300E8
:4008C0001A1952000A44106B516B0622FFF7D8FF0134E4B2002CF1D04FF090402849FFF7F7FE284A137843F0020313701032137843F002031370244C237843F04003237082
:40090000A2F58632513A137843F0100313701F481F490822FFF7B4FF1E481F490A22FFF7AFFF1E481E490822FFF7AAFF1D481E490822FFF7A5FF1D481D490A22FFF7A0FF97
:400940001C481D490822FFF79BFF1C4A137843F0080313701A4D61232B70FFF7D9FE81232B700122174B1A70FFF74AFF164821460E22FFF785FF38BDE8460040A47000007B
:400980009400004803500140A0430040025100407C080048C051004084080048F251004090080048125100409808004820510040A008004832510040AC080048224300402D
:4009C0000048004004000840B0430040024A137843F080031370704777650040024A137803F07F031370704777650040014B1870704700BF07650040014B1870704700BF2B
:400A000047650040014B1870704700BF27650040014B1870704700BF37650040014B1870704700BF87650040014B1878704700BF67650040014B1878704700BF576500406C
:400A400008B501E0FFF7F6FFFFF7EEFF10F0100FF8D108BD10B5134A137803F0C00343F009031370104C237843F001032370FF20FFF7BCFFFF20FFF7BFFF2820FFF7C2FFD5
:400A80002820FFF7C5FF0020FFF7C8FF00F0E4FC237843F01003237000F0E2FCFFF7D0FF10BD00BF776500409765004008B5054B1B7823B9FFF7CEFF0122024B1A70FFF76D
:400AC00085FF08BDF489FF1F01BE704710B5044605E0084B186800F0B7FCA4F50044B4F5004FF6D8034B586800FB04F000F0ACFC10BD00BF1881FF1F08B5034B1B7A03FB19
:400B000000F000F0A1FC08BD1881FF1F70B504460E46074B1D681F2802D90020FFF7D4FF04F01F04103455F8240045F8246070BD08ED00E038B504460D46072902D90020D3
:400B4000FFF7C2FF1F2C02D90020FFF7BDFF04F01F0000F1604000F564406D01EDB2057038BD00BF044A137803F07F03C001C0B203431370704700BF30510040044A1378F9
:400B800003F0FE0300F0010018431070704700BFF0510040044A137803F0DF03400100F0200018431070704720510040014B1B685864704708ED00E04001C0B2014B18709E
:400BC000704700BF01E400E00222014B1A60704700E100E00222014B1A60704780E100E010B50446FFF7F6FF2046FFF7DFFF0720FFF7E2FFFFF7E8FF10BD00BF7222084BF4
:400C00001A702022A3F580731A700622A1331A70472210331A700022B03B1A70704700BF8865004010B500F017FC04460A4A137843F020031370A2F58072137843F01003B9
:400C400013700132137843F01003137000F050F9204600F005FC10BD9865004008B5054B1B7823B9FFF7CAFF0122024B1A70FFF7D9FF08BDF589FF1F084B1B78DBB213F0F6
:400C8000200F06D0064A1078C0B213F01E0F02D17047002070470020704700BF686400404B650040034B1B7813F0040FFAD1024B18707047696400404964004008B50A288B
:400CC0000FD00C2802D0082806D102E04FF4805209E04FF4807206E00020FFF7F5FE002201E04FF480620021094B198042F2107303FB02F303F6C413064A82FB0302DB1790
:400D0000C3EBE223044A1360044B198008BD00BF368AFF1FAD8BDB683C8AFF1F388AFF1F10B500F099FB04461E4A137843F0020313701032137843F002031370193A13780F
:400D400043F0010313701032137843F00103137002F5AA521932137843F0030313700422114B1A70013B1A7802F0BF021A701A7842F003021A700822053B1A700222A3F593
:400D80009753123B1A70094A137843F0080313700A20FFF7B1FE0122054B1A60204600F05FFB10BDAB4300400E5900402F5B004080E200E010B504460A280DD00C2802D095
:400DC000082804D101E0C42207E0442205E00020FFF77AFEC42200E08422034B1A702046FFF76CFF10BD00BF0A59004008B5102000F08CF800200721FFF79CFE0020074984
:400E0000FFF784FE064A137843F0060313700C20FFF7D0FF0022034B1A8008BDE10E000009590040348AFF1F08B5054B1B7823B9FFF7DCFF0122024B1A70FFF771FF08BD01
:400E4000F789FF1F024A137843F00103137070470859004010B5074B1B7813F0010401D10028F8D024B10120FFF746FE014B1B78204610BD09590040034B1B88034A1088BD
:400E8000181A00B2704700BFA25B0040388AFF1F38B50F4B1B889BB233B10D4B1C8824B204EB8404640001E00A4B1C680A4B1B88C01A00B201F010F8084901F061F80546D6
:400EC000204601F009F80146284601F00DF938BD368AFF1F3C8AFF1F348AFF1F00002041704700BF014B1878C009704711510040054A137843F0020313701032137843F0F1
:400F000002031370704700BFA2430040034B1A7800F0F80010431870704700BF82400040024A137843F080031370704776650040024A137803F07F031370704776650040F0
:400F4000014B1870704700BF06650040014B1870704700BF46650040014B1870704700BF2665004008B50B4A137803F0C00343F0090313702032137843F001031370FF2067
:400F8000FFF7DEFFFF20FFF7E1FF7F20FFF7E4FF08BD00BF7665004008B5054B1B7823B9FFF7E0FF0122024B1A70FFF7B9FF08BDF889FF1F044A137803F0DF03400100F016
:400FC0002000184310707047F0510040044A137803F0F10300F00E0018431070704700BF7D500040084A137843F0020313701032137843F00203137002F65932137843F041
:4010000001031370704700BFA3430040014B1870704700BF0F4F0040014B1878704700BF0F4F0040014B188880B27047104F0040014B1880704700BF104F0040014B18885C
:4010400080B27047144F0040014B1880704700BF124F004008B5164A137803F0010313700232137803F0FC031370124B1A7802F0CF021A701A7842F030021A701A7802F053
:40108000F0021A701A7842F00F021A700A4A137843F00103137045F6BF50FFF7C9FF45F6BF50FFF7D1FF0820FFF7B0FF08BD00BF0C4F0040174F00400D4F004008B5054B69
:4010C0001B7823B9FFF7C6FF0122024B1A70FFF789FF08BDF989FF1F084A137843F0080313701032137843F00803137002F67132137843F001031370704700BFA343004041
:40110000014B1870704700BF274F0040014B1878704700BF274F0040014B188880B27047284F0040014B1880704700BF284F0040014B188880B270472C4F0040014B188096
:40114000704700BF2A4F004008B5164A137803F0010313700232137803F0FC031370124B1A7802F0CF021A701A7842F030021A701A7802F0F0021A701A7842F00F021A70CF
:401180000A4A137843F00103137045F6BF50FFF7C9FF45F6BF50FFF7D1FF0820FFF7B0FF08BD00BF244F00402F4F0040254F004008B5054B1B7823B9FFF7C6FF0122024B61
:4011C0001A70FFF789FF08BDFA89FF1F084A137843F0040313701032137843F00403137002F66532137843F001031370704700BFA3430040014B1870704700BF1B4F0040F9
:40120000014B1878704700BF1B4F0040014B188880B270471C4F0040014B1880704700BF1C4F0040014B188880B27047204F0040014B1880704700BF1E4F004008B5164A85
:40124000137803F0010313700232137803F0FC031370124B1A7802F0CF021A701A7842F030021A701A7802F0F0021A701A7842F00F021A700A4A137843F00103137045F646
:40128000BF50FFF7C9FF45F6BF50FFF7D1FF0820FFF7B0FF08BD00BF184F0040234F0040194F004008B5054B1B7823B9FFF7C6FF0122024B1A70FFF789FF08BDFB89FF1FE9
:4012C000044A137803F0EF03000100F01000184310707047C0510040044A137803F0F10300F00E0018431070704700BF64500040044A137803F0EF03000100F0100018432F
:4013000010707047F0510040044A137803F0F10300F00E0018431070704700BF7C500040084A137843F0010313701032137843F00103137002F64D32137843F00103137000
:40134000704700BFA3430040014B1870704700BF034F0040014B1878704700BF034F0040014B188880B27047044F0040014B1880704700BF044F0040014B188880B27047E7
:40138000084F0040014B1880704700BF064F004008B5164A137803F0010313700232137803F0FC031370124B1A7802F0CF021A701A7842F030021A701A7802F0F0021A7095
:4013C0001A7842F00F021A700A4A137843F00103137045F6BF50FFF7C9FF45F6BF50FFF7D1FF0820FFF7B0FF08BD00BF004F00400B4F0040014F004008B5054B1B7823B957
:40140000FFF7C6FF0122024B1A70FFF789FF08BDFC89FF1F044A137803F0EF03000100F0100018431070704730510040044A137803F0F10300F00E0018431070704700BFF0
:401440001C500040000000000230800803D000BF01380046FCD17047EFF3108072B6704780F31088704700BF10B431F0004408D0114BA1F580129A4208D804205DF8044B96
:40148000704718B902205DF8044B704701F1FF41094B01F5E0019942EFD9B4F5801F01D20320EBE7054B9C4201D00020E6E7B0FA80F04009E2E700BFFFFFDF7F0000F07F75
:4014C00081F0004102E000BF83F0004330B54FEA41044FEA430594EA050F08BF90EA020F1FBF54EA000C55EA020C7FEA645C7FEA655C00F0E2804FEA5454D4EB5555B8BF40
:401500006D420CDD2C4480EA020281EA030382EA000083EA010180EA020281EA0303362D88BF30BD11F0004F4FEA01314FF4801C4CEA113102D0404261EB410113F0004F2D
:401540004FEA03334CEA133302D0524263EB430394EA050F00F0A780A4F10104D5F1200E0DDB02FA0EFC22FA05F2801841F1000103FA0EF2801843FA05F359410EE0A5F19B
:4015800020050EF1200E012A03FA0EFC28BF4CF0020C43FA05F3C01851EBE37101F0004507D54FF0000EDCF1000C7EEB00006EEB0101B1F5801F1BD3B1F5001F0CD34908B5
:4015C0005FEA30004FEA3C0C04F101044FEA445212F5800F80F09A80BCF1004F08BF5FEA500C50F1000041EB045141EA050130BD5FEA4C0C404141EB010111F4801FA4F137
:401600000104E9D191F0000F04BF01460020B1FA81F308BF2033A3F10B03B3F120020CDA0C3208DD02F1140CC2F10C0201FA0CF021FA02F10CE002F11402D8BFC2F1200C43
:4016400001FA02F120FA0CFCDCBF41EA0C019040E41AA2BF01EB0451294330BD6FEA04041F3C1CDA0C340EDC04F11404C4F1200220FA04F001FA02F340EA030021FA04F3C1
:4016800045EA030130BDC4F10C04C4F1200220FA02F001FA04F340EA0300294630BD21FA04F0294630BD94F0000F83F4801306BF81F480110134013D4EE77FEA645C18BF6C
:4016C0007FEA655C29D094EA050F08BF90EA020F05D054EA000C04BF1946104630BD91EA030F1EBF0021002030BD5FEA545C05D14000494128BF41F0004130BD14F580045B
:401700003CBF01F5801130BD01F0004545F0FE4141F470014FF0000030BD7FEA645C1ABF194610467FEA655C1CBF0B46024650EA013406BF52EA033591EA030F41F40021DE
:4017400030BD00BF90F0000F04BF0021704730B54FF4806404F132044FF000054FF0000150E700BF90F0000F04BF0021704730B54FF4806404F1320410F0004548BF4042B3
:401780004FF000013EE700BF42004FEAE2014FEA31014FEA02701FBF12F07F4393F07F4F81F06051704792F0000F14BF93F07F4F704730B54FF4607401F0004521F00041D5
:4017C00020E700BF50EA010208BF704730B54FF000050AE050EA010208BF704730B511F0004502D5404261EB41014FF4806404F132045FEA915C3FF4DCAE4FF003025FEAB6
:40180000DC0C18BF03325FEADC0C18BF033202EBDC02C2F1200300FA03FC20FA02F001FA03FE40EA0E0021FA02F11444C1E600BF70B54FF0FF0C4CF4E06C1CEA11541DBF8F
:401840001CEA135594EA0C0F95EA0C0F00F0DEF82C4481EA030621EA4C5123EA4C5350EA013518BF52EA033541F4801143F4801338D0A0FB02CE4FF00005E1FB02E506F00E
:401880000042E0FB03E54FF00006E1FB03569CF0000F18BF4EF0010EA4F1FF04B6F5007F64F5407404D25FEA4E0E6D4146EB060642EAC62141EA55514FEAC52040EA5E50DB
:4018C0004FEACE2EB4F1FD0C88BFBCF5E06F1ED8BEF1004F08BF5FEA500E50F1000041EB045170BD06F0004646EA010140EA020081EA0301B4EB5C04C2BFD4EB0C0541EAE9
:40190000045170BD41F480114FF0000E013C00F3AB8014F1360FDEBF002001F0004170BDC4F10004203C35DA0C341BDC04F11404C4F1200500FA05F320FA04F001FA05F21D
:4019400040EA020001F0004221F0004110EBD37021FA04F642EB06015EEA430E08BF20EAD37070BDC4F10C04C4F1200500FA04F320FA05F001FA04F240EA020001F0004167
:4019800010EBD37041F100015EEA430E08BF20EAD37070BDC4F1200500FA05F24EEA020E20FA04F301FA05F243EA020321FA04F001F0004121FA04F220EA020000EBD37008
:4019C0005EEA430E08BF20EAD37070BD94F0000F0FD101F00046400041EB010111F4801F08BF013CF7D041EA060195F0000F18BF704703F00046520043EB030313F4801FCD
:401A000008BF013DF7D043EA0603704794EA0C0F0CEA135518BF95EA0C0F0CD050EA410618BF52EA4306D1D181EA030101F000414FF0000070BD50EA410606BF1046194622
:401A400052EA430619D094EA0C0F02D150EA013613D195EA0C0F05D152EA03361CBF104619460AD181EA030101F0004141F0FE4141F470014FF0000070BD41F0FE4141F41F
:401A8000780170BD70B54FF0FF0C4CF4E06C1CEA11541DBF1CEA135594EA0C0F95EA0C0F00F0A7F8A4EB050481EA030E52EA03354FEA013100F088804FEA03334FF08055A0
:401AC00045EA131343EA12634FEA022245EA111545EA10654FEA00260EF000419D4208BF964244F1FD0404F5407402D25B084FEA3202B61A65EB03055B084FEA32024FF4BB
:401B000080104FF4002CB6EB020E75EB030E22BFB61A754640EA0C005B084FEA3202B6EB020E75EB030E22BFB61A754640EA5C005B084FEA3202B6EB020E75EB030E22BF2B
:401B4000B61A754640EA9C005B084FEA3202B6EB020E75EB030E22BFB61A754640EADC0055EA060E18D04FEA051545EA16754FEA06164FEAC30343EA52734FEAC2025FEADC
:401B80001C1CC0D111F4801F0BD141EA00014FF000004FF0004CB6E711F4801F04BF01430020B4F1FD0C88BFBCF5E06F3FF6AFAEB5EB030C04BFB6EB020C5FEA500C50F1F0
:401BC000000041EB045170BD0EF0004E4EEA113114EB5C04C2BFD4EB0C0541EA045170BD41F480114FF0000E013C90E645EA060E8DE60CEA135594EA0C0F08BF95EA0C0F40
:401C00003FF43BAF94EA0C0F0AD150EA01347FF434AF95EA0C0F7FF425AF104619462CE795EA0C0F06D152EA03353FF4FDAE1046194622E750EA410618BF52EA43067FF4D4
:401C4000C5AE50EA41047FF40DAF52EA43057FF4EBAE12E74FF0FF3C06E000BF4FF0010C02E000BF4FF0010C4DF804CD4FEA410C7FEA6C5C4FEA430C18BF7FEA6C5C1BD01A
:401C800001B050EA410C0CBF52EA430C91EA030F02BF90EA020F0020704710F1000F91EA030F58BF994208BF90422CBFD8176FEAE37040F0010070474FEA410C7FEA6C5C99
:401CC00002D150EA013C07D14FEA430C7FEA6C5CD6D152EA033CD3D05DF8040B704700BF8446104662468C461946634600E000BF01B5FFF7B7FF002848BF10F1000F01BDCA
:401D00004DF808EDFFF7F4FF0CBF012000205DF808FB00BF4DF808EDFFF7EAFF34BF012000205DF808FB00BF4DF808EDFFF7E0FF94BF012000205DF808FB00BF4DF808ED05
:401D4000FFF7CEFF94BF012000205DF808FB00BF4DF808EDFFF7C4FF34BF012000205DF808FB00BF80F0004002E000BF81F0004142001FBF5FEA410392EA030F7FEA226C82
:401D80007FEA236C6AD04FEA1262D2EB1363C1BFD218414048404140B8BF5B42192B88BF704710F0004F40F4000020F07F4018BF404211F0004F41F4000121F07F4118BFEE
:401DC000494292EA030F3FD0A2F1010241FA03FC10EB0C00C3F1200301FA03F100F0004302D5494260EB4000B0F5000F13D3B0F1807F06D340084FEA310102F10102FE2A1A
:401E000051D2B1F1004F40EBC25008BF20F0010040EA03007047490040EB000010F4000FA2F10102EDD1B0FA80FCACF1080CB2EB0C0200FA0CF0AABF00EBC25052421843ED
:401E4000BCBFD0401843704792F0000F81F4000106BF80F400000132013BB5E74FEA41037FEA226C18BF7FEA236C21D092EA030F04D092F0000F08BF0846704790EA010FFD
:401E80001CBF0020704712F07F4F04D1400028BF40F00040704712F100723CBF00F50000704700F0004343F0FE4040F4000070477FEA226216BF08467FEA23630146420248
:401EC00006BF5FEA412390EA010F40F4800070474FF0000304E000BF10F0004348BF40425FEA000C08BF704743F0964301464FF000001CE050EA010208BF70474FF000036C
:401F00000AE000BF50EA010208BF704711F0004302D5404261EB41015FEA010C02BF84460146002043F0B64308BFA3F18053A3F50003BCFA8CF2083AA3EBC25310DB01FAD6
:401F400002FC634400FA02FCC2F12002BCF1004F20FA02F243EB020008BF20F00100704702F1200201FA02FCC2F1200250EA4C0021FA02F243EB020008BF20EADC707047AA
:401F80004FF0FF0C1CEAD0521EBF1CEAD15392EA0C0F93EA0C0F6FD01A4480EA010C400218BF5FEA41211ED04FF0006343EA501043EA5111A0FB01310CF00040B1F5000F37
:401FC0003EBF490041EAD3715B0040EA010062F17F02FD2A1DD8B3F1004F40EBC25008BF20F00100704790F0000F0CF0004C08BF49024CEA502040EA51207F3AC2BFD2F1D0
:40200000FF0340EAC250704740F400004FF00003013A5DDC12F1190FDCBF00F000407047C2F10002410021FA02F1C2F1200200FA02FC5FEA310040F1000053EA4C0308BF45
:4020400020EADC70704792F0000F00F0004C02BF400010F4000F013AF9D040EA0C0093F0000F01F0004C02BF490011F4000F013BF9D041EA0C018FE70CEAD15392EA0C0FE7
:4020800018BF93EA0C0F0AD030F0004C18BF31F0004CD8D180EA010000F00040704790F0000F17BF90F0004F084691F0000F91F0004F14D092EA0C0F01D142020FD193EA5C
:4020C0000C0F03D14B0218BF084608D180EA010000F0004040F0FE4040F40000704740F0FE4040F4400070474FF0FF0C1CEAD0521EBF1CEAD15392EA0C0F93EA0C0F69D038
:40210000A2EB030280EA010C49024FEA402037D04FF0805343EA111143EA10130CF000408B4238BF5B0042F17D024FF4000C8B4224BF5B1A40EA0C00B3EB510F24BFA3EBD4
:40214000510340EA5C00B3EB910F24BFA3EB910340EA9C00B3EBD10F24BFA3EBD10340EADC001B0118BF5FEA1C1CE0D1FD2A3FF650AF8B4240EBC25008BF20F0010070479A
:402180000CF0004C4CEA50207F32C2BFD2F1FF0340EAC250704740F400004FF00003013A37E792F0000F00F0004C02BF400010F4000F013AF9D040EA0C0093F0000F01F0DA
:4021C000004C02BF490011F4000F013BF9D041EA0C0195E70CEAD15392EA0C0F08D142027FF47DAF93EA0C0F7FF470AF084676E793EA0C0F04D14B023FF44CAF08466EE7EF
:4022000030F0004C18BF31F0004CCAD130F000427FF45CAF31F000437FF43CAF5FE700BF4FF0FF3C06E000BF4FF0010C02E000BF4FF0010C4DF804CD4FEA40024FEA410346
:402240007FEA226C18BF7FEA236C11D001B052EA530C18BF90EA010F58BFB2EB030088BFC81738BF6FEAE17018BF40F0010070477FEA226C02D15FEA402C05D17FEA236C80
:40228000E4D15FEA412CE1D05DF8040B704700BF844608466146FFE70FB5FFF7C9FF002848BF10F1000F0FBD4DF808EDFFF7F4FF0CBF012000205DF808FB00BF4DF808ED76
:4022C000FFF7EAFF34BF012000205DF808FB00BF4DF808EDFFF7E0FF94BF012000205DF808FB00BF4DF808EDFFF7D2FF94BF012000205DF808FB00BF4DF808EDFFF7C8FF57
:4023000034BF012000205DF808FB00BF2DE9F041069C904606460F461D4600F029F808FB01FCA8FB002300FB05C5B21A2B4467EB03038646C4E90023BDE8F0812DE9F8435D
:40234000089E1746804689461D4600F067F900FB05F3A0FB074507FB0137B8EB04043D4469EB0505C6E90045BDE8F883704700BF00292DE9F043C0F2A8800026002BC0F29B
:402380009E8081468E4690469C46174604460D46002B3DD18A4259D9B2FA82F33BB1C3F120029D4020FA02F29F4015439C40390CB5FBF1F01FFA87FE01FB10550EFB00F3C9
:4023C000220C42EA0545AB4209D9ED1900F1FF3280F00B81AB4240F2088102383D44ED1AB5FBF1F301FB13550EFB03FEA4B244EA0545AE4508D9ED1903F1FF3280F0F78026
:40240000AE4540F2F480023B43EA0043002203E08B420FD900221346341C18BF012460424FF0000565EB45015840514000196941BDE8F083B3FA83F2002A40F089808B4203
:4024400002D3804500F2E2800123E5E712B90123B3FBF2F7B7FA87F8B8F1000F3BD1ED1B4FEA174C1FFA87FE0122B5FBFCF00CFB10550EFB00F3210C41EA0545AB4207D92C
:40248000ED1900F1FF3102D2AB4200F2C3800846ED1AB5FBFCF30CFB13550EFB03FEA4B244EA0545AE4507D9ED1903F1FF3102D2AE4500F2AD800B4643EA0043ACE75242F9
:4024C0006FEA060663EB43035BE7404261EB41014FF0FF3652E707FA08F7C8F1200225FA02F34FEA174CB3FBFCF11FFA87FE0CFB113324FA02F205FA08F50EFB01F92A4357
:40250000100C40EA0343994504FA08F407D9DB1901F1FF3078D2994576D902393B44C9EB0303B3FBFCF00CFB10330EFB00F592B242EA03439D4207D9DB1900F1FF325FD2B9
:402540009D425DD902383B445D1B40EA01428CE7C2F1200328FA03F10CFA02FC41EA0C0C4FEA1C402EFA03F1B1FBF0F51FFA8CF700FB151129FA03F30EFA02FE07FB05F9E2
:4025800043EA0E0E4FEA1E4343EA0141894508FA02F808D911EB0C0105F1FF3332D2894530D9023D6144C9EB0101B1FBF0F300FB131107FB03F71FFA8EFE4EEA014E7745E6
:4025C00008D91EEB0C0E03F1FF3117D2774515D9023BE64443EA0543A3FB0889C7EB0E0ECE4509D305D0002216E71046F7E613460AE794404445F6D2013BF4E70B46E9E78A
:402600001046A1E71D46CEE7014688E7134603E7023B51E702383D443AE700BF2DE9F043002B44D18A42154604464FD9B2FA82F70E464FB1C7F12003B94020FA03F602FA1D
:4026400007F50E4300FA07F42F0CB6FBF7F01FFA85FE07FB10620EFB00F1260C46EA0243994209D95B1900F1FF3280F0EE80994240F2EB8002382B44591AB1FBF7F307FB37
:4026800013110EFB03FEA4B244EA01418E4508D9491903F1FF3280F0DA808E4540F2D780023B43EA004000263146BDE8F0838B4247D8B3FA83F6002E48D18B4202D38242A7
:4026C00000F2CF8001203146BDE8F08312B90125B5FBF2F5B5FA85FCBCF1000F78D1491B2F0C1FFA85FE0126B1FBF7F007FB10110EFB00F2230C43EA01418A4207D949196D
:4027000000F1FF3302D28A4200F2BC801846891AB1FBF7F307FB13110EFB03FEA4B244EA0142964508D9521903F1FF3180F09180964540F28E80023B43EA00403146BDE86D
:40274000F083002630463146BDE8F083C6F1200422FA04F5B3402B4321FA04F74FEA1348B7FBF8FC1FFA83F908FB1C7720FA04FE01FA06F509FB0CF44EEA05054FEA154EFB
:402780004EEA0747BC4202FA06F204D9FF180CF1FF3168D38C463F1BB7FBF8F408FB147709FB04F9ADB245EA0741894504D9C91804F1FF355DD32C4644EA0C44A4FB02237D
:4027C000C9EB0101994249D345D0204600266BE7CCF1200405FA0CF521FA04F32A0CB3FBF2F61FFA85FE02FB163820FA04F701FA0CF10EFB06F90F433C0C44EA084399458D
:4028000000FA0CF407D95B1906F1FF3138D2994536D9023E2B44C9EB0303B3FBF2F002FB10330EFB00F1BFB247EA0343994207D95B1900F1FF3721D299421FD902382B444C
:402840001746591A40EA06464EE7104614E7134627E70B4670E7B0409042B6D2601E002622E7304620E7BC4294D9ACF1020C1F4491E789459FD9023C19449DE73846DFE76F
:402880000E46C8E70238294441E700BF014B1868704700BF5085FF1F70B50F4E0F4D761BB61018BF002405D0013455F8043B9847A642F9D10A4E0B4D04F0D6FC761BB6102E
:4028C00018BF002406D0013455F8043B9847A642F9D170BD70BD00BF74720000747200008072000074720000844641EA000313F0030349D1403A23D30B6803604B68436041
:402900008B688360CB68C3600B6903614B6943618B698361CB69C3610B6A03624B6A43628B6A8362CB6AC3620B6B03634B6B43638B6B8363CB6BC36340304031403ADBD22B
:4029400030320BD30B6803604B6843608B688360CB68C36010301031103AF3D20C3205D351F8043B40F8043B043AF9D2043208D0D2071CBF11F8013B00F8013B01D30B886F
:4029800003806046704700BF082A13D38B07B1D010F00303AED0C3F10403D21ADB071CBF11F8013B00F8013BA4D331F8023B20F8023B9FE7043AD9D3013A11F8013B00F8D2
:4029C000013BF9D20B7803704B7843708B7883706046704770B4840746D0541E002A41D0CDB2034602E0621EE4B3144603F8015B9A07F8D1032C2ED9CDB245EA05250F2C7A
:402A000045EA054519D9264603F11002103E0F2E42F8105C42F80C5C42F8085C42F8045C02F11002F2D8A4F1100222F00F0204F00F041032032C13440DD91E462246043A56
:402A4000032A46F8045BFAD8221F22F003020432134404F003042CB1C9B21C4403F8011BA342FBD170BC704714460346C2E700BF0FB410B5074B82B004AC54F8042B1868B5
:402A800023468168019400F007F802B0BDE8104004B070475085FF1F2DE9F04FBFB01C4689460892074602F067FD03680C941846159303F0FBFB16901FB1BB6B002B00F058
:402AC000F480B9F80C2093B29D040AD4D9F8641042F4005321F40051A9F80C30C9F864109BB2180740F1AB80D9F81020002A00F0A68003F01A030A2B00F0AD8000231A468D
:402B00000DF1B80C6446B846119314931793099323932293CDF884C012921392089D2B78002B00F0C680252B02D1C2E0252B03D015F8013F002BF9D1089BEE1A7EB1229B73
:402B4000239A013308993244072B84E842002392229300F393800834099B334409932B78002B00F0938000234FF0FF3A1A465646691C6D788DF867300A9306934B1CA5F1E9
:402B80002001582900F2C083DFE811F05602BE03BE039902BE03BE03BE03BE03BE03BE03A0026402BE03F201F002BE036E027502750275027502750275027502750275026D
:402BC000BE03BE03BE03BE03BE03BE03BE03BE03BE03BE0366032703BE032703BE03BE03BE03BE035F03BE03BE030A03BE03BE03BE03BE03BE03A803BE03BE037F03BE03A3
:402C0000BE03BE03BE03BE03BE03BE03BE03BE03BE039403AE02270327032703CC02AE02BE03BE03D302BE03DD02F90184025D02BE030B02BE039500BE03BE03300238465C
:402C4000494601F08BF9A0B9B9F80C3003F01A030A2B7FF453AFB9F90E30002BFFF64EAF38464946089A234601F03AF93FB0BDE8F08F4FF0FF303FB0BDE8F08F404649465E
:402C800021AA03F07DFB40B92EAC65E7239B23B14046494621AA03F073FBB9F80C305A06E7D409983FB0BDE8F08F384602F0ECFA07E7089D53E70893069BB2469E0640F104
:402CC00017830C9F073727F0070303F10802D3E900670C92012300229446CDF83CA08DF86720BAF1000F03DB069A22F08002069256EA070240F02A83BAF1000F00F02884C4
:402D0000012B00F02B83022B00F075842EA9F20842EA4772F80806F0070307461646303356EA070201F8013DF1D1069A0E91D00700F113852EAB5B1A0B930B9A534692450F
:402D4000B8BF1346079300231093BCF1000F02D0079B01330793069B13F002030D9302D0079B02330793069B13F0840640F0EB820A9B079AC2EB030ABAF1000F40F3E3827C
:402D8000BAF1100F2399229AB44FC8BF4FF0100B07DC1EE0AAF1100ABAF1100F04F1080417DD01321031072A2391229284E88008F0DD4046494621AA03F0E2FA00287FF480
:402DC0006CAFAAF1100ABAF1100F2EAC2399229AE7DC01320AEB010B072ACDF88CB0229284E8800400F3A4829DF867C00834BCF1000F0FD0229B0BF1010B01330DF167010F
:402E00000122072BCDF88CB0229384E8060000F3BD8308340D9B73B1229B0BF1020B01331AA90222072BCDF88CB0229384E8060000F3B8830834802E00F0FB820F9B0B9ACB
:402E4000C2EB030ABAF1000F32DDBAF1100F229A834F22DD10265B4606E0AAF1100ABAF1100F04F1080417DD01321033072A2393229227606660F0DD4046494621AA03F049
:402E80007FFA00287FF409AFAAF1100ABAF1100F2EAC239B229AE7DC9B460132D344072ACDF88CB0229284E8800400F363830834069BDB0500F16682229B0B9901330E9A03
:402EC0008B44072BCDF88CB022606160229300F380830834069B59073AD50A9B079A9D1A002D35DD102D229B5C4F1EDD10265A4604E0103D102D04F1080415DD013310320D
:402F0000072B2392229327606660F2DD4046494621AA03F035FA00287FF4BFAE103D102D2EAC239A229BE9DC93460133AB44072BCDF88CB022932760656009DD4046494601
:402F400021AA03F01DFA00287FF4A7AEDDF88CB0099B079A0A998A42ACBF9B185B180993BBF1000F40F0EA82002322932EACD5E51946069840F0040006901D78FEE50893FD
:402F8000069BB24613F0200300F015810C9F073727F0070303F10802D3E900670C92002399E60C9A089313684FF0000B0E938DF867B0171D002B00F07E86002E0E98C0F245
:402FC00030865946324602F0D1FD002800F0AF860E9BCDF83CB0C31A0B930C9723EAE3730793CDF840B09DF867C0AEE608931D4BB2461493069B8DF86720990640F14F818E
:403000000C9F073727F0070303F108020C92D3E90067069BDB0740F1078356EA070300F00383069A302342F002028DF868308DF86950069202234EE6002A40F031851D78AF
:40304000194620229AE5069941F0200106911D78194693E51D7819462B228FE53C710000E87000001C710000069941F0800106911D78194682E5A5F13000002113F8015B64
:4030800001EB810100EB4101A5F130000928F5D90A9174E50C9A0699089330238DF86830B44BB2467825166841F002010432149306910C9200278DF8695002230BE60699FA
:4030C00041F0010106911D78194657E50C9D296808460A912946002801F10401C0F26F850C911D78194649E50893069BB24699068DF8672040F1BC800C9F073727F0070766
:40310000D7E9002307F1080116461F460C91002A73F10003C0F2E6839DF867C0CDF83CA00123DEE5069941F0400106911D78194624E51D7806996C2D00F03A8541F01001FA
:40314000069119461AE50893069B8DF867209A0640F175840C9A134604330C93099B1168DF171A463B46C1E90023D7E41D78591C2A2D00F09E86A5F1300009280B464FF0FB
:4031800000063FF6FCAC13F8015B06EB860600EB4606A5F130000928F5D946EAE676EEE40893069BB24643F010030693069B13F020037FF4EBAE069A12F0100240F0818221
:4031C000069B13F0400300F07C820C9913460A4604320E8800270C927DE50893069B0C9F1B07B2468DF86720B34607F1070740F10B8427F0070303F108020C921A685B68EB
:403200001292139313991298FEF72EF901281399129840F0758300220023FEF77BFD002840F06B859DF867C0534A544B069E472DD8BF1A460321002026F0800607910F9013
:4032400006960E920B9110907FE5069941F0080106911D78194691E40893069BB24643F010030693069B8DF8672099063FF544AF069BDA0640F1D3830C9A13461E6804334F
:40328000F7170C9332463B4641E708933C4BB2461493069B8DF8672099063FF5B1AE069BDA0640F1F1830C9A00271346043316680C93AEE60C980893026800238DF890206B
:4032C000024601219C4604328DF867300F93109324AB07910C920B910E933CE50893069BB24643F010030693069B9E063FF5E9AC069BD80640F1BA830C9A134604321E68BF
:40330000002701230C92E6E408938DF86720002D3FF4BCAC002301229C468DF867300F93109324AB07928DF890500B920E9312E54046494621AA03F023F800287FF4ADACFE
:403340009DF867C02EACDDF88CB050E5012B7FF4DAAC002F08BF0A2E80F0E4810DF1F80B30360BF8416D2EABCBEB03030B93CDF838B0E2E41C710000FC700000F87000002A
:4033800008710000652D40F38A801298139900220023FEF7B5FC002800F04981229BBA4901330BF1010B0122072BCDF88CB0229384E8060000F3858308341B9B119A9342BC
:4033C00003DB069BDF077FF585AD229B16990133159A8B44072BCDF88CB022606160229300F3F4830834119B5D1E002D7FF772AD102D229BA54F40F3E28010265A4604E0AD
:403400000834103D102D40F3D98001331032072B2392229327606660F2DD4046494621AA02F0AEFF00287FF438AC2EAC239A229BE7E70A9B079A9E1A002E7FF7FFAC102E61
:40344000229A924F1FDD4FF0100A5B4604E0103E102E04F1080415DD01321033072A2393229284E88004F2DD4046494621AA02F087FF00287FF411AC103E102E2EAC239BB2
:40348000229AE9DC9B460132B344072ACDF88CB022922760666000F318820834CEE4119B229D012B0BF1010605F1010540F3C7810E9A0123072D239622602295636000F319
:4034C000D7810834169A0135159B1644072D239622952360626000F3D78108340023129813990022FEF70CFC119B002840F0F1800E9A013B013501321E44072D22602295AF
:403500002396636000F3D5810834179A013506EB020B1DAB072DCDF88CB02295626023607FF7D7AC4046494621AA02F029FF00287FF4B3AB2EACDDF88CB0CBE44046494611
:4035400021AA02F01DFF00283FF40EADFFF7A5BB002B4AD1069BDA0747D50DF1F80B30230BF8413D2EABCBEB03030B93CDF838B0FFF7E3BB4046494621AA02F001FF0028DF
:403580007FF48BAB2EACDDF88CB091E44046494621AA02F0F5FE00287FF47FAB2EACDDF88CB037E44046494621AA02F0E9FE00287FF473AB2EACDDF88CB03CE493460133E8
:4035C000AB44072BCDF88CB02293276065607FF780AC4046494621AA02F0D2FE00287FF45CABDDF88CB02EAC74E42EABCDF82CA00E93FFF7A2BB14980DF1B80B330943EA4B
:403600000773390906F00F020F461E46835C0BF8013D56EA0703F1D15A462EAB9B1ACDF838B00B93FFF789BB0223FFF754BB1B9D002D40F35282119A109913468A42A8BF39
:403640000B461D460E99002D01EB020A0CDD0A46229BAB440133072BCDF88CB084E82400229300F305830834109B002DA8BF5B1B002B1D4640F38B80102D229B034F40F382
:40368000148210265A4608E038710000E87000000834103D102D40F3078201331032072B2392229327606660F2DD4046494621AA02F066FE00287FF4F0AA2EAC239A229B46
:4036C000E7E70C9900270A4604320E680C92FFF702BB03F1FF3ABAF1000F7FF716AFBAF1100F864FC8BF4FF0100B07DCD8E00834AAF1100ABAF1100F40F3D28001351036EA
:40370000072D2396229584E88008F0DD4046494621AA02F035FE00287FF4BFAA2EAC239E229DE5E70DF1B80BCDF81CC0304639460A22002303F06AFC3032304639460BF89C
:40374000012D00230A2203F061FC06460F4656EA0703EBD1DDF81CC05EE7302B00F042820E9B2EA8013B1A460E93821A30230B9201F8013CFFF7E1BA4046494621AA02F0EF
:40378000FFFD00287FF489AADDF88CB02EAC0E9A10991B9B0A441646119A934240DB069AD5073DD4119AC6EB0A05D31A9D42A8BF1D46002D2F460BDD229AAB440132072AE1
:4037C000CDF88CB084E8C000229200F387820834002FB4BF1D46DD1B002D7FF77BAB102D229B464F7FF7EBAE10265A4604E00834103D102D7FF7E2AE01331032072B239269
:40380000229327606660F2DD4046494621AA02F0B7FD00287FF441AA2EAC239A229BE7E7229A1698013215998344072ACDF88CB021606060229200F331820834B2E7069B34
:40384000D8073FF535AE0E9A0123072D23962260229563607FF758AE4046494621AA02F08FFD00287FF419AA2EAC239E229D4CE64046494621AA02F083FD00287FF40DAA35
:403880002EAC239E229D1DE64046494621AA02F077FD00287FF401AA2EAC239E229D1DE601355644072D2396229584E880047FF72BAE4046494621AA02F062FD00287FF443
:4038C000ECA9239E229D2EAC1FE64046494621AA02F056FD00287FF4E0A92EACDDF88CB0FFF7ACBA4FF02D0C764267EB47078DF867C0CDF83CA00123FFF7F3B9E870000009
:40390000FDF7B2FD002800F02D8125F02003BAF1FF3F0B9300F07882472B05D1BAF1000F14BFD3464FF0010B069B43F480730F93139BB3F1000A129B0793B7BF53460023FA
:4039400003F1004A2D23662D0D9300F07381462D00F070810B9B0220452B14BF5F460BF101071BA98DE8810002911CA81FA90390079A53460491404600F0FAFB672D0E90C2
:4039800002D0472D40F06681069BDB0740F159820E9BDE190798514600220023FEF7B0F9002840F0C2811F9B9E4206D930215A1C1F9219701F9B9E42F9D80E9A9B1A1193E1
:4039C0000B9B472B1B9B00F0A981652D40F3BB81662D109300F02882119B109A934200F31682069BD90700F13C8222EAE2730B920D9A002A40F0878107930F9B9DF867C021
:403A000006930F92FFF7A1B927F007073B6812937B68139307F108030C93FFF7F3BB069B0C9A13F0400F13463FF428ACB2F900600433F7170C9332463B46FFF768BB069B25
:403A4000DB060BD4069B5F0608D50C9A136804320C92BDF824201A80FFF760B80C9A136804320C92099A1A60FFF758B8069B0C9A13F0400F13463FF441AC168804320027E8
:403A800001230C92FFF727B9069B0C9A13F0400F13467AD00433168800270C93FFF7B9BA19461D78FFF76AB893460133AB44072BCDF88CB02293276065603FF75DAE083475
:403AC00065E64046494621AA02F05AFC00287FF4E4A82EACDDF88CB06FE4229BB04901330BF1010B0122072BCDF88CB0229384E8060050DC08342DB9119B1BB9069BDE072B
:403B00007FF5E8A9229B1699013315980BEB0102072B239284E80300229300F3688108346D42002D6FDD102D9E4FC8BF102605DCAAE00834103D102D40F3A6800133103208
:403B4000072B2392229327606660F2DD4046494621AA02F015FC00287FF49FA82EAC239A229BE7E7904A914B069E472DD8BF1A46032126F080060F900791069610900E920E
:403B80000B919DF867C0FFF7E0B80433166800270C93FFF73EBA4046494621AA02F0F0FB00287FF47AA82EAC1B9DDDF88CB0A2E741F0200106915D78591CFEF7DFBF0A98A8
:403BC0000C9140420A901946FFF7D3B94046494621AA02F0D5FB00287FF45FA82EACDDF88CB000E40E9A2EAB9B1A0B93FFF7A5B84046494621AA02F0C3FB00287FF44DA8D1
:403C0000239A229B2EAC1198013302EB000B0E9A072BCDF88CB02293226060607FF759A9D7E4CDF83CB002F041FB0C970B900346FFF7D4B903201BA98DE8010802911CA8B1
:403C40001FA90390079A53460491404600F090FA5F460E900E9BDE190B9B462B7FF49AAE0E9B1B78302B00F0EE801B9F3E4491E64046494621AA02F083FB00287FF40DA81D
:403C80002EACDDF88CB0EFE401332A44072B2392229327606560ABDC0834B4E74046494621AA02F06DFB00287EF4F7AF2EAC1B9BDDF88CB076E53346062E28BF06230B938D
:403CC00023EAE373DDF838C00793394B0C97CDF83CC0CDF840C00E93FFF737B84046494621AA02F04DFB00287EF4D7AF1B9B119ADDF88CB0D31A2EAC6AE52D239C468DF84E
:403D00006730FFF791BA07930F9B4FF02D0C069300238DF867C00F93FFF71AB8DF1C11DB9B450FDB1093672556E6334645E626EAE6730F900C9710909DF867C007930B961B
:403D4000FFF703B8023D013B002B1B93BABF5B422D222B22092B8DF874508DF8752040F386800DF183000146124A82FB0326DA17C2EBA60606EB8602A3EB42023032092EC4
:403D8000334601F8012DEFDC0A463033DEB202F8016D904240F2A0800DF176020B460DE038710000E87000000471000000710000307100006766666613F8016B834202F8BE
:403DC000016BF9D121AB5B1A0DF1760213441DAA9B1A119A1793012A13440B9357DD0B9B002201330B93109223EAE37300E64046494621AA02F0C4FA00287EF44EAF2EACD4
:403E00001B9D239A229B8BE64FF0060B8CE5109B002BD8BFC3F10206119BC8BF0126F3180B9323EAE373E3E5002B39DDBBF1000F25D1069BDE0722D4109A22EAE2730B92B1
:403E4000D6E51F9BB9E50798514600220023FDF757FF00287FF409AFC7F101071B973E4498E5109B01330B9323EAE373C0E5303330228DF877308DF876201EABA7E7109B23
:403E80000BF1010633440B9323EAE373B0E5069B13F00103A3D110930B9B23EAE373A7E5BBF1000F12D1069BD8070FD401230B939EE50C9D28462E680430002E5D780C90D8
:403EC000BEF65CAE4FF0FF36FEF758BE0BF102030B9323EAE3738BE50DF1760377E700BF2DE9F04588464F6EADF26C4D1997D8F81C70B1F80CE0B1F80EA00797D8F8247057
:403F00001AAC4FF480652EF0020E002669460094049402950595ADF80CE0ADF80EA0099706960546FEF7B8FD041E07DB2846694601F016F9B04218BF4FF0FF34BDF80C30D1
:403F40005B0605D5B8F80C3043F04003A8F80C3020460DF26C4DBDE8F08500BF38B52F4B054618680C4610B1836B002B36D0A28993B218070CD52069A8B113F001021ED027
:403F8000636900225B42A361A260F0B1002038BDD9063AD5580724D4206942F00803A3819BB20028E9D103F42072B2F5007FE4D02846214601F0E4FAA3892069DDE799073C
:403FC00058BF6269A2600028E0D1A3891A06DED543F04003A3814FF0FF3038BD01F054F9C5E7216B49B104F14003994203D0284601F0B8F9A28900232363206922F024020D
:40400000002392B284E80900C7E742F0400209232B604FF0FF30A28138BD00BF5085FF1F024B13B1024800F005B87047000000009D520000014600200246034602F0C0B982
:404040002DE9F04F03690F6983B09F4200F38B80013F01F1140600F1140A56F827305AF827200133B2FBF3F8BB00009306EB030953440193B8F1000F3DD000231C46B446D6
:40408000D6461A465CF804BBDEF800501FFA8BF34FEA1B4B03FB08220BFB08F303EB124392B2A41A1FFA83FBAAB22244CBEB154404EB224492B242EA0442E1454EF8042B99
:4040C0004FEA24444FEA1342DCD2009B5AF803308BB9019C231F9A450CD254F8043C4BB9A4F1080302E01A68043B1AB99A4507F1FF37F8D30761044601F09AFF00282EDBF8
:4041000000235546194608F1010856F8042B2B6890B2081A120C99B2C2EB1343421803EB224392B242EA0342B14545F8042B4FEA2341EAD25AF827200AEB87037AB91A1FDF
:4041400092450BD253F8042C42B9083B02E01A68043B1AB99A4507F1FF37F8D32761404603B0BDE8F08F002003B0BDE8F08F00BF2DE9F04F016C99B00446CDE90223259DF7
:4041800041B1426C012393408B604A6001F064FD00232364DDE90223002B994636DB00232B60A54B1A4609EA0303934217D0DDE902670022002330463946FDF7A1FD80465D
:4041C00000282BD0249A01231360269B002B00F0CB809A481860013819B0BDE8F08F42F20F73249A1360029B002B00F0A6809448269B002BF0D0C378002B00F0B78000F1D5
:404200000803269A136019B0BDE8F08F039A012322F000492B60CDF80C90C2E717AA16AB8DE80C00204632463B4601F097FF5FEA1955834640F08A80DDF85880179D6FF43B
:40424000826345449D42C0F295827E4A05F21243521B09FA02F9029A22FA03F049EA0000FDF770FA0123013DA1F1F87112930022754BFDF729F96AA3D3E90023FDF7D8FAC1
:4042800069A3D3E90023FDF721F9064628460F46FDF768FA66A3D3E90023FDF7C9FA02460B4630463946FDF711F906460F4602F085FE39460590002230460023FDF72AFD75
:4042C000002840F0A481059B162B00F29D81DDE9022305985D4901EBC001D1E90001FDF737FD002800F05082059B013B059300230C93C5EB0805B5F1010A00F19F810023D0
:404300000693059B002BC0F290819A440B9300230993229B092B2BD8052B40F37786043B22930025229B023B032B00F25586DFE813F0CF03C103B0026A06414B444AC9F361
:404340001300002814BF1846104651E7C7F3130343F07F51CDF848803046A5F2FF3541F44011DDF8588082E73A4835E7C31C48E7002161642046229101F046FC4FF0FF33B7
:40438000229A07930D9301230890239220640A93179B002BC0F2D080059A0E2A00F3CC802A4B03EBC203D3E90089239B002BC0F29283DDE9026742464B4630463946FDF732
:4043C00061FB02F0FBFD8246FDF7CCF942464B46FDF72EFA02460B4630463946FDF774F8079E089F0AF13005012E3D7002460B4607F1010562D00022174BFDF719FA002205
:40440000002306460F46FDF77BFC002840F08180CDF808B0DDF820A0DDF81CB006942AE061436F63A787D23FB3C8608B288AC63FFB799F501344D33F0000F07F39710000E6
:40444000587100000EFCFFFF0000F83F787100004C71000038710000000024400022C84BFDF7E6F90022002306460F46FDF748FC002840F0E08342464B4630463946FDF79E
:4044800001FB02F09BFD0446FDF76CF942464B46FDF7CEF902460B4630463946FDF714F804F1300605F8016BCAEB0506B34502460B46D3D1A246DDF808B0069C104619461C
:4044C000FDF704F806460F464046494632463B46FDF720FC48B94046494632463B46FDF70FFCB0B11AF0010F13D015F8018C6B1E089904E08B4200F0458413F8018DB8F131
:40450000390F03F101051A46F4D008F10103DBB213702046594601F09FFB0022059B2A70249A01331360269B002B00F04A8308981D6019B0BDE8F08F0A9A002A00F0848042
:40454000229A012A40F30983079B5F1E099BBB42C0F2AF83DF1B079B002BC0F2A584069D079B069A20461A44012106929A4401F00DFC064665B1BAF1000F09DDAA4553468A
:40458000A8BF2B46069AED1AD21A0692C3EB0A0A099B002B1ADD0A9B002B00F08383002F10DD31463A46204601F09AFC06465A463146204601F0F4FB80465946204601F045
:4045C0004BFBC346099BDA1B40F0A7822046012101F0DCFB0B9B8046002B39DD01461A46204601F07DFC229B8046012B40F39B824FF00009D8F8103008EB8303186901F0C4
:4046000077FBC0F120002DE001230C9371E60598FDF7A8F832463B46FDF772FB00287FF452AE059B013B05934DE6069A059BD21A5B420993002306920B936AE6CAF1000377
:4046400006934FF0000A5CE6099F069D0A9E91E7229B012B40F3B8824FF000090B9B002BC8D10120504410F01F0000F08180C0F12003042B40F3C184C0F11C00069B0544AC
:40468000034406938244069B002B05DD59461A46204601F075FC8346BAF1000F05DD41465246204601F06CFC80460C9B002B40F06D82079B002B40F39B820A9B002B71D1B6
:4046C000DDF82090079F4D4604E05946204601F0CDFA834658464146FFF7B2FC303005F8010BC9EB0503BB424FF00A024FF00003EBDB089B079A8446012AACBF9B180133C9
:404700001D464FF0000A594601222046CDF808C001F036FC4146834601F08AFC0028DDF808C040F3FC8215F8012C6B1E089904E08B4200F0798213F8012D392A03F1010522
:40474000F6D001321A704146204601F085FA002E3FF4DFAEBAF1000F05D0B24503D05146204601F079FA3146204601F075FAD0E61C2083E7034B029A5B1B02FA03F06FE575
:4047800000002440EEFBFFFF0C90B2E53146002320460A2201F06AFA0D9B0646002B40F315840793002D05DD31462A46204601F0E7FB0646B9F1000F40F0EE82B146089A08
:4047C000079B1746013BD3180993029B03F001030A9341465846FFF733FC31460546584601F026FC4A4682464146204601F044FCC268034605F1300C002A40F0BD811946F7
:404800005846CDF81CC0069301F012FC069B02901946204601F020FA029ADDF81CC02AB9229B1BB90A9B002B00F0B083BAF1000FC0F2578205D1229B1BB90A9B002B00F07E
:404840005082002A00F3BC82099B07F1010A9F4287F800C0554600F0BF8259460A220023204601F003FA4E458346314620464FF00A024FF0000300F0798101F0F7F9494616
:4048800006460A222046002301F0F0F9574681469FE701230A93239B002B40F319821F461E460D9307930021172F61640AD9012204235B0003F114008742114602F10102E6
:4048C000F7D26164204601F09FF90E2E089020643FF65EAD002D3FF45BADDDE902230599CDE90E23002940F32682BA4B01F00F020D1103EBC203E906D3E9006740F1E1814A
:40490000DDE90E01B44B05F00F05D3E90823FDF7B9F8CDE902014FF003088DB130463946DFF8B492EA0705D5D9E90023FCF780FF08F101086D1009F10809F3D106460F46AA
:40494000DDE9020132463B46FDF79CF8CDE902010C9B43B1DDE902010022A04BFDF7DAF9002840F0B5824046FCF7FCFEDDE90223FCF75EFF9A4B0022FCF7A8FD079B064632
:40498000A1F15077002B00F06881059BDDF81CC013930A9B002B00F026828E4B002003EBCC0353E902238F49CDF850C0FDF76AF832463B46FCF788FDDDE90267CDE91001BA
:4049C0003946304602F0FAFA0546FCF7CBFE02460B4630463946FCF777FDDDE9102330355FFA85F8089D064685F800800F460135FDF790F9002840F0B98232463B4600200A
:404A00007649FCF761FD02460B46DDE91001FDF79FF9002840F0B382DDF850C0BCF1010F40F33A81089BCDF850A0CDF808B003EB0C09DDE910ABA0460FE032463B46002006
:404A40006649FCF741FD52465B46FDF763F9002840F090824D4500F01A81504659460022614BFCF7E5FE00225F4B82468B4630463946FCF7DDFE0F46064602F09FFA0446CF
:404A8000FCF770FE02460B4630463946FCF71CFD3034E4B205F8014B52465B4606460F46FDF738F90028C8D0139BDDF808B0444605932EE500230A93239B059A13440D9375
:404AC0000133002B079340F30A81079E3746EAE600230A93DFE6079B002B3FF76AAC40F0668240460022414B4946FCF7A1FEDDE90223FDF723F9DDF81C804646002800F0F2
:404B00008B80239B089DDB4305934146204601F0A3F8002E7FF427AEFBE45946204601F0DFF9834652E5029B002B7FF461AD039BC3F31303002B7FF48FAD039B23F0004730
:404B40003F0D3F05002F00F01E82069B0AF1010A013306934FF0010980E5129A002A00F0A98103F23343099F069DFAE401F07EF85746064681462CE601462046CDF808C0DD
:404B800001F06AF80122DDF808C04FE65846414601F04EFA0028BFF68CAD059F5946002320460A22013F059701F060F80A9B8346002B7FF4EBAD0D9B002B40F3FC8107935B
:404BC0007EE50898FFF708BB029B002B7FF444ADADE700BF78710000407200000000F03F00001C400000E03F0000244000001440229B022B7FF761AD079B002B81D1414669
:404C00000522204601F032F880465846414601F00FFA00287FF775AF059A08993123013205920B704D1C70E7059A312301320592089A137087E5DDF808B0069C69E440463C
:404C4000FCF790FDDDE90223FCF7F2FD0022BE4BFCF73CFC0646A1F15077DDE902010022BA4BFCF731FC32463B46CDE90201FDF76FF88046002840F0B280DDE9020132463E
:404C800007F10043FDF746F830B1464639E74446DDF850A0DDF808B0DDE90E23CDE90223FFF776BB5946099A204601F019F983468CE4099B0B9AFB1A1A4409970B92002721
:404CC00049E4DDE90E234FF00208CDE9022324E6012623960D96079600216164F2E51E46FAE7002A15DD594601222046CDF808C001F046F94146834601F09AF90028DDF86E
:404D000008C040F34D81BCF1390F00F009810CF1010CB24687F800C07D1C4E4613E504D11CF0010F01D0FEE4154615F8013C6A1E302BF9D007E5059B5D42002D00F0C18057
:404D4000DDE90E01824B05F00F0203EBC203D3E90023FCF76DFD2D11CDE9020100F030817C4E4FF00208EB0705D5D6E90023FCF75FFD08F101086D1006F10806F3D1CDE9F6
:404D80000201E5E5059A302301320592089A137031231370FFF7BDBB7168204600F034FF0546336906F10C019A1C92000C30FDF79BFD20462946012201F0E2F88146FEE437
:404DC000BCF1390F00F0AC800CF1010CB24687F800C07D1C4E46B6E4B2464E4693E44FF00008464618E75A490CF1FF3301EBC3013246D1E9000114933B46CDF854C0FCF71C
:404E000017FDDDE90267CDE910013946304602F0D5F80546FCF7A6FC02460B4630463946FCF752FBDDF854C0089A3035BCF1010F157006460F4602F1010523D0089BCDF8DF
:404E400008A063445E469A46AB460022424BFCF7EFFC8946804602F0B1F80746FCF782FC303702460B4640464946FCF72DFB0BF8017BD345E9D1B3460F460646149BDDF854
:404E800008A01D440022354BDDE91001FCF71EFB32463B46FCF73EFF002848D0139B059315F8018CFFF723BB069B079A9D1A0023FFF757BB169B099FC3F13603069DFFF744
:404EC00050BBDDE90E234FF00208CDE902233FE5079B002B3FF4B3AE0D9D002D7FF7DCAEDDE9020100221C4BFCF7A2FC06460F4608F10100CDE90267FCF734FC02460B46D7
:404F000030463946FCF794FC0F4B0022FCF7DEFA059B0646013B1393A1F15077AC4638E53922B2463A704E467D1CFFF7FEBBDDE9102300200949FCF7C7FA32463B46FCF798
:404F400007FF70B9A8E600BF00001C40000014407871000040720000000024400000E03F154615F8013C6A1E302BF9D0139B0593FFF7CFBA4346A0461C46DDF808B0139BC5
:404F80000593FFF7B4BAB946FFF768BBBCF1390FC6D0BAF1000F7FF7BCAE05F1310CB8E67FF4B7AE1CF0010F3FF4B3AEABE64FF000084646A5E5229B022B04DC0D9BFEE51C
:404FC0004FF00208C4E40D9B079315E6229B022BF9DC0D9BFFF7E5BB002565642946204600F012FE4FF0FF3307930D9301230890239520640A93FFF7CBB93FF444ABC0F136
:405000003C00FFF73BBB01230A9355E50125FFF789B900BFAFF300808B892DE9F0419AB20D46110780463CD46A6843F40063002AAB8165DDAE6A002E4BD09BB203F48052AB
:40504000002192B2D8F80040C8F80010002A5BD02A6D5F0705D569682B6B521A0BB1EB6BD21A4046E9690023B047461C56D0AB892A6923F400639BB200212A60DA04AB8131
:4050800069603BD4296BC8F8004011B305F14003994202D0404600F065F900202863BDE8F0812E69AEB191072C680CBF6B6900232E60A41BAB600AE0324623466F6A4046DF
:4050C000E969B8470028A4EB0004064404DD002CF2DC0020BDE8F081AB894FF0FF3043F04003AB81BDE8F081AB892A6923F400639BB2AB81DB0469602A60C3D52865C1E736
:40510000EA6B002A96DCE4E701234046E969B047431C024619D0AB89AE6A9AE7D8F800100029E1D01D2907D0162905D0AB8943F04003AB81BDE8F081AB89296923F400634C
:405140000022AB8185E806009CE7D8F80030002BE1D01D2B01D0162BBED1C8F80040B8E710B5044682B008B1836B53B1B1F90C0008B902B010BD204602B0BDE81040FFF7A2
:405180004BBF019100F080F80199EFE7014900F0C1B900BFE96400002DE9F04F074635487D68002407F53B7204230321F863C7F8E412C7F8E822C7F8E04283B02C606C605A
:4051C000AC606C66EC812C616C61AC61AB81214605F15C000822FDF7FDFBDFF89CB0BE68DFF898A0DFF89890DFF8988001230922C5F820B0C5F824A0C5F82890C5F82C8081
:40520000ED612146F381B28106F15C0034607460B460746634617461B46108220193FDF7D9FBFD6812200222F661C6F820B0C6F824A0C6F82890C6F82C802146A881EA8167
:405240002C606C60AC606C662C616C61AC6105F15C000822FDF7BEFB019BED61C5F820B0C5F824A0C5F82890C5F82C80BB6303B0BDE8F08F8D510000296200004D62000085
:4052800085620000A5620000836B03B17047FFF783BF00BF704700BF704700BF38B5084B084DED1AAC1018BFED1805D0013C55F8043D9847002CF9D1BDE8384001F0E0BF6E
:4052C0008C72000090720000F8B50C46224F064600F096FCBB685D6825F00305291B01F6EF7121F47F6121F00F01A1F58054B4F5805F07DB3046002100F084FFBB682B444A
:40530000984204D0304600F07DFC0020F8BD3046614200F077FF01300DD0104BBA6819682D1B45F001053046091B5560196000F069FC0120F8BD3046002100F063FFBA68FF
:40534000831A0F2BDEDD064C0449246843F00103001B53600860D5E7B085FF1F0C8AFF1FBC89FF1F00294ED02DE9F0410C46804600F046FC54F8047C6249A4F1080527F0D5
:405380000102AB188E6858689E4220F003005AD0FE0758600BD454F8087C01F1080EED1BAC683A44744567D0EF68E760BC601C186468E4070CD4544F9C680244BC427CD09A
:4053C000D86842F00103E06084606B60AA5003E042F001036B60AA50B2F5007F14D2D20801EBC20301244868921004FA02F29C681043AC60EB6048609D60E5604046BDE8AD
:40540000F04100F0FFBB7047530A042B47D8930903F13804600001EB800083683949834243D0596821F00301914202D99B689842F7D1DA68EA60AB6040469560DD60BDE835
:40544000F04100F0DFBBFF07024407D454F8084C2D1BEB68A8682244C36098602B4B42F001001B6868609A428D60C7D3284B40461968FFF729FFC1E719184968C90709D458
:40548000D96802449B6842F00100D9608B606860AA50B3E742F001036B60AA50AEE7142B14D803F15B046000B5E74A68A4100120A04002434A601A46BCE742F001034D6168
:4054C0000D61EC60AC606B60AA5097E7542B04D8130B03F16E0460009DE7B3F5AA7F04D8D30B03F17704600095E740F25450834204D8930C03F17C0460008CE7FC207E24EF
:4055000089E700BFB085FF1FB885FF1FB889FF1F088AFF1F2DE9F84310F538761ED0884607464FF000097568B468013D10D4A389013D012B08D9B4F90E30013304D0384627
:405540002146C04749EA00096B1C04F16804EED13668002EE7D14846BDE8F883B1464846BDE8F883004870478C85FF1F014B1868704700BFAC85FF1F004870475485FF1F4E
:405580008B899AB212F0020F3CD1F0B50C46B1F90E1091B00029054619DB01AA01F050F8002812DB029B03F47043A3F50057B7FA87F7B3F5004F4FEA57172AD0A3894FF49E
:4055C000806643F40063A3810BE0A3899AB212F0800F43F40063A3810CBF4FF48066402600272846314600F03BF8A38940B31A4A43F08003EA63A3812060206166619FB902
:4056000011B0F0BD01F1430301220B600B614A617047124BA26A9A42D0D1A3894FF480663343A381E664DCE72846B4F90E1001F0ABF90028E4D0A38943F00103A381DFE78F
:405640009A05DDD404F1430243F002030121A381226022616161D3E78D510000856200002DE9F04F01F10B05162D83B0064627D935F0070500F1B680A94200F2B38000F06B
:40568000BFFAB5F5FC7F22D2BC4FE80807EBC003DC689C4200F0BC816368E16823F0030323445A68A56842F00102E96030468D605A6000F0A7FA0834204603B0BDE8F08F11
:4056C000102900F28F8000F09BFA1025DCE7680A00F08F80042800F24781A80938304100A64F07EB8101CC68A14206D10CE0002A80F28280E468A14206D0636823F0030378
:405700005A1B0F2AF3DD013801309C493C6901F1080E744500F07181636823F003035A1B0F2A00F35781002AC1F814E0C1F810E066DAB3F5007F80F02D81DB0801EBC30858
:405740004FEAA30C4A68012303FA0CF3D8F808C01343C4F808C0C4F80C804B60C8F80840CCF80C408210012494409C4255D8234206D120F003006400234200F10400FAD085
:4057800007EBC008C4468146DCF80C309C4507D135E1002980F24581DB689C4500F02F815A6822F00302511B0F29F2DD1C46DA6854F808CF45F0010941F001081D44C3F8B2
:4057C00004903046CCF80C20C2F808C07D613D61C5F80CE0C5F808E0C5F80480695000F011FA69E7002420460C23336003B0BDE8F08F7E213F2073E723445A68E16851E7F9
:4058000023445A68304642F001025A60083400F0F9F9204603B0BDE8F08FBC68636823F00308454504D8C5EB08030F2B00F38C80534BDFF85CA11A68DAF800302A44013380
:4058400004EB080B00F0518102F580520F3222F47F6222F00F0211463046019200F0D2FCB0F1FF3F8146019A00F04881834500F2EF80444BCB4519681144196000F043815D
:40588000DAF80000DFF808E101301BBFCBEB090B5944CEF80090196019F0070100F00881C1F10800C1F58051814408314A44C2F30B02C2EB010A51463046019300F0A2FC15
:4058C000431C019B00F02D81C9EB0002524442F001021968BC425144C7F808901960C9F80420DFF8A0A016D0B8F10F0F40F2EF806268A8F10C0323F0070302F00102E018E4
:405900004FF0050E1A430F2B6260C0F804E0C0F808E000F20A811C4BBC681A68914288BF19601A4B1A689142626888BF196022F003029542A2EB050301D80F2B04DC304633
:4059400000F060F90024B7E645F0010243F00103254462603046BD6008346B6000F052F9204603B0BDE8F08F142869D9542800F29880280B6E304100B2E600BFB085FF1FB1
:40598000088AFF1F0C8AFF1F048AFF1F008AFF1FBC89FF1F5A0A042A55D9142A00F2A7805B324FEA420C07EB8C0CDCF80810DFF8B88161457FD04A6822F00302934202D2B4
:4059C00089688C45F7D1CA687B68E260A1609460CC60C7E645F0010742F001032544676030464D610D61C5F80CE0C5F808E06B60AA50083400F006F95EE64B68B2E609F1FC
:405A0000010919F0030F0CF1080C7FF4BDAE2CE004F108036469A34208BF02303FF475AE3AE61C461A445168DB6854F8085F41F0010151603046EB609D6000F0E3F83BE628
:405A40005B3041004CE69A0938324FEA420CAAE7BC42454B3FF40DAF9C68626822F0030267E7D8F8008098457CD110F0030FA8F1080300F1FF30F4D17B6823EA04037B606C
:405A800064009C423FF6C9AE002C3FF4C6AE234248467FF475AE6400234200F10400FAD06EE6B0F5AA7F18D8E80B7730410017E64FF48051FAE6D8F8043092104FF0010C44
:405AC0000CFA02F21343C8F804300A467DE70123C9F804304C4600222BE740F2545398421CD8A80C7C304100FAE51032B3E6542A23D81A0B6E324FEA420C54E7BC686268DF
:405B000022F0030215E7CBF30B0000287FF4B8AE4244BB6842F001025A60FCE6FC217E20DEE501224FF0000AD3E604F108013046FFF718FCDAF80010EDE6B2F5AA7F04D88C
:405B4000DA0B77324FEA420C2DE740F254518A4204D89A0C7C324FEA420C24E74FF0FC0C7E2220E77B688BE7B085FF1F830770B4C9B240D0541E002A3FD003788B4218BFFE
:405B8000431C05D11CE0ECB10278013C8A4217D013F0030F184603F10103F4D1032C14D884B103788B420BD00519431C02E002788A4205D0AB42184603F10103F7D1002065
:405BC00070BC7047204670BC7047024641EA012646EA0646136810467340A3F1013525EA030313F0803F02F10402D9D1043C032C1046EFD8D4E71446D0E71046E0E700BF67
:405C0000704700BF704700BFC26C70B505460C4652B152F824308BB1196842F82410002218461A61DA6070BD2122042100F01AFCE86402460028ECD1002070BD012101FA09
:405C400004F6721D2846920000F00CFC03460028F2D044608660E2E731B1C36C4A6853F82200086043F82210704700BFF0B50C4605460E6983B001F1140E0027DEF8001095
:405C8000013788B2090C02FB003302FB01F198B201EB134300EB0341BE424EF8041B4FEA1343EBDC3BB1A268964207DA04EB8602013653612661204603B0F0BD6168284633
:405CC00001310193FFF7A0FF0746226904F10C01023292000C30FCF707FEEA6C6168019B52F82100206042F821403C46DEE700BF030C1B04B3B90004102310F07F4F04BFCC
:405D00000002083310F0704F04BF0001043310F0404F04BF80000233002807DB420003D4202070470023E8E7581C704718467047036813F0070207D0D90720D49A0720D462
:405D40009B0803600220704799B209B91B0C102213F0FF0F04BF1B0A0832190704BF1B090432990704BF9B080232D90704D45B0801D120207047013203601046704700208D
:405D800070475B0803600120704700BF10B50C460121FFF739FF01224461026110BD00BF2DE9F04F0E69156985B0AE420C469146C0F292802B4635461E46A36805EB0608FC
:405DC00061689845C8BF0131FFF71EFF00F1140A0AEB880BDA45019005D25346002143F8041B9B45FBD809F1140909EB860304F11402994502EB850C59D2CDF808B0CDF8E4
:405E00000C809B46904659F8047B1FFA87FEBEF1000F1FD047465646002100E00646304657F8045B3468ABB2A2B20EFB03222D0C240C0EFB0544531804EB13419AB242EA0E
:405E40000142BC454FEA114140F8042BE6D8716059F8047C3F0C22D0DAF80030002255461E464046964600E025462C460288360C07FB026699B206EB0E0241EA024344F8DF
:405E8000043B50F8041B6E68090CB3B207FB0131844501EB12434FEA134EE5D86B60CB450AF1040AAFD8DDF808B0DDF80C80B8F1000F0BDD5BF8043CABF1040B1BB105E06F
:405EC0005BF8043D13B9B8F10108F9D10198C0F8108005B0BDE8F08F144689466DE700BF12F003032DE9F041144607460E462DD1A4101CD0BD6C95B3E3074FF0000806D46C
:405F0000641014D02868A8B10546E307F8D5384631462A46FFF744FFB6B17268FB6C641053F82210316043F822600646EAD13046BDE8F08129462A463846FFF731FF2860FB
:405F4000C0F800800546E0E70646D9E70B4A013B52F823200023FFF789FE0646C8E701213846FFF751FE40F2712101220023416102610546B8640360BEE700BF6871000017
:405F80002DE9F0470F694FEA62198B684F447D1C9D420E4614468046496804DD5B009D4201F10101FADC4046FFF72EFEB9F1000F00F1140109DD00239E460A4601334B45F8
:405FC00042F804EBFAD101EB8301326906F1140303EB820E14F01F0222D0C2F120094FF0000A1C688C4694404AEA040441F8044B53F8044B9E4524FA09FAF2D8CCF804A01C
:40600000BAF1000F00D0BD1CD8F84C307268013D53F822100561316043F82260BDE8F087043953F8042B9E4541F8042FF9D8EBE702690B69D21A13D19B0014301431194473
:4060400010B4034401E098420CD253F8044D51F8042D9442F7D009D301205DF8044B70471046704700205DF8044B70474FF0FF305DF8044B704700BF2DE9F0470C46054677
:40608000114620469146FFF7D3FF061E5DD056DB4FF0000A28466168FFF7B6FD09F1140380461E462769D9F8102004F1140E7546C0F80CA000F114040EEB870E03EB820CC4
:4060C0004FF0000A55F8042B56F8041B90B200EB0A0388B2090C1B1AC1EB124202EB23429BB243EA0243B44544F8043B4FEA224AA946E7D8AE45264615D959F8040B83B2F6
:406100005344000C00EB23419BB243EA0143CE4544F8043B4FEA214AEFD8ED43754425F0030404343444043C23B954F8043D013F002BFAD04046C8F81070BDE8F0872346D8
:406140004FF0010A4C469946A4E728463146FFF75BFD012346610361BDE8F087F0B5012183B01C46C3F30A551646FFF74DFDC4F3130407460DB144F48014019406B302A8B1
:4061800040F8086DFFF7D4FD002830D19DE80C007A61002B14BF02240124BB613C61D5B9089A07EB8403A0F2324010601869FFF79FFD099BC0EB44101860384603B0F0BDAB
:4061C00001A8FFF7B5FD019B0122144620303A617B61002DE4D0A5F23343089A03441360099BC0F135001860384603B0F0BD019BC0F12001009A03FA01F10A43C340019369
:406200007A61C6E738B5074C0023054608462360FAF7E4F9431C00D038BD2368002BFBD02B6038BD408AFF1F10B50C46B1F90E1000F034FC002803DB236D0344236510BD4B
:40624000A38923F48053A38110BD00BF2DE9F0410C4689891D46CB051646074606D5B4F90E100022022300F0A1FBA18921F48051A1813846B4F90E1032462B46BDE8F0411E
:4062800000F08AB810B50C46B1F90E1000F08EFBA389421C0EBF23F4805343F480532065A38110BDB1F90E1000F00CB920F0030110F00300C0F1000051F8043B00F1040CC5
:4062C0004FEACC0C6FF000021CBF22FA0CF213434FF0010C4CEA0C2C4CEA0C4CA3EB0C0222EA030212EACC1204BF51F8043B0430F4D0C2F1000102EA0102B2FA82F2C2F159
:406300001F0200EBD20070474B6E2DE9F0479C040F4692462BD59368126833B3804602F1080919E96000B60817D0043D002401E0A64210D0404655F8041F3A4600F06EF9EE
:40634000431C04F10104F3D10023CAF80830CAF80430BDE8F087DAF80830A3EB8603CAF8083009F10809002BDBD10020ECE700F07BF90023CAF80830CAF80430BDE8F0874E
:40638000936810B41BB15DF8044BFFF7BDBF184653605DF8044B704770B5084C06460025084611461A462560F9F736FF431C00D070BD2368002BFBD0336070BD408AFF1FB2
:4063C0002DE9F047254C064625688846D5F8484192469946C4B360681F2817DC411C76B104EB8003C3F888A0D4F88851012282401543022EC4F88851C3F808911ED0831C51
:406400006160002044F82380BDE8F087144B03B34FF4C870AFF300800446D0B1D5F84831002784E888003846C5F848410121C4F88871C4F88C71002EE1D0D1E7D4F88C312E
:406440001A43C4F88C21DAE705F5A674C5F84841C1E74FF0FF30BDE8F08700BFE47000000000000010B502FB01F1FFF7F9F8044668B150F8042C22F00302043A242A18D8ED
:40648000132A06D8034600221A605A609A60204610BD00231B2A036043600FD9242A8360C36005BF0361436100F1100300F11803E9E70021FCF78EFA204610BD00F10803D4
:4064C000E1E700BF38B5074C002305460846236000F0B4FD431C00D038BD2368002BFBD02B6038BD408AFF1F00293DD070B505460C4608B1836B7BB3B4F90C300BB900204E
:4065000070BD28462146FEF787FDE36A064633B12846E16998470028B8BF4FF0FF36A3891B061CD4216B41B104F14003994202D02846FEF717FF00232363616C21B12846EA
:40654000FEF710FF00236364FEF7A4FE0023A381FEF7A2FE304670BDFEF796FECCE728462169FEF7FFFEDDE7002070472DE9F04182B007460E461446FEF7F8FF012840D0BD
:40658000384601A9324604F15C0300F0DFFCB0F1FF3F80462ED000283BD09DF80410002509E0236819702368013323600135A8452FD901AB595DA368013B002BA360F0DA6D
:4065C000A269934206DB236819702368197801330A29EAD13846224600F064FCA0F1FF30B0FA80F040090028E0D04FF0FF3002B0BDE8F081A38943F04003A38102B0BDE804
:40660000F081731EFE2BBBD8F1B280468DF80410C5E7304602B0BDE8F08100BF938913F4005F0BD110B4546E43F4005344F40054546693815DF8044BFFF798BFFFF796BFED
:4066400038B5084C0023054608461146236000F0FDFC431C00D038BD2368002BFBD02B6038BD00BF408AFF1F9368002B00F0B1802DE9F04FB1F80CE083B01EF0080F0C46B3
:406680008146164628D00B6933B30EF002081FFA88F0356880B34FF0000BD846DFF8E4A2B8F1000F00F08F80D0454346484628BF5346E1695A46676AB847002840F3A88097
:4066C000B36883441B1AC0EB0808B360002BE7D1002003B0BDE8F08F48462146FDF73EFC002840F04681B4F80CE035680EF002081FFA88F00028CED11EF0010B40F09180A9
:40670000D846B8F1000F58D01EF4007FA76862D0B845BA46C0F0C2801EF4906F00F0C08067692169236807EB47075B1A07EBD777581C7F10404487423A463CBF07463A46E7
:406740001EF4806F009300F0FB8011464846FEF787FF009B8246002800F00E811A4621690093FCF7C1F8A289009B22F4906242F08002A2810AEB0300C4F810A0FB1A6761A1
:40678000C24647462060A3605246594600F022F9A0682268C01BA060404602EB0A032360B36883441B1AC0EB0808B360002B8FD0B4F80CE0B8F1000FA6D1D5F800B0D5F88F
:4067C000048008359DE7D5F800B0D5F80480083566E70020704720682369984203D86269904580F08580474528BF474659463A4600F0F0F8A3682268DB1B3A44A3602260C2
:40680000002B49D148462146FEF7AAFC002843D0A38943F040034FF0FF30A38103B0BDE8F08F8046834682460090BAF1000F2BD0009B002B4FD0D045434628BF5346206816
:4068400021691F468842D4F808E0626903D90EEB020C63455EDC934224DB1346676A4846E1695A46B847071ED2DDB8EB070829D0B368BB44DB1BC7EB0A0AB360002B3FF4E0
:4068800027AFBAF1000FD3D10023D5F800B0D5F804A000930835C8E7384681E74746C246206871E71A465946019300F093F8A2682168019BB8EB0708A2EB03020B44A260E7
:4068C0002360D5D148462146FEF74AFC00289FD1CDF80080CCE758460A215246FFF746F9002841D001300123CBEB00080093A2E76FF00043434528BF434693FBF2F3676AD3
:4069000003FB02F34846E1695A46B84700283FF747AF7DE762465946CDF804C000F05AF82368DDF804C04846634423602146FEF717FCDDF804C000287FF46AAF674694E763
:40694000484600F0BFF8009B824600287FF412AF48462169FEF706FDA3890C2223F080039BB2C9F8002054E701230AF10108009361E74FF0FF30ACE60C23C9F80030A3896B
:4069800047E700BF00FCFF7F38B5074C002305460846236000F062FB431C00D038BD2368002BFBD02B6038BD408AFF1F70B5084C06460025084611461A46256000F056FBE2
:4069C000431C00D070BD2368002BFBD0336070BD408AFF1F8842F0B50DD98B1898420AD28118002A54D09A1A13F8014D934201F8014DF9D1F0BD0F2A48D940EA01039B07B3
:406A000047D1154600F1100401F1100353F8106C103D44F8106C53F80C6C0F2D44F80C6C53F8086C04F1100444F8186C53F8046C03F1100344F8146CE8D8A2F1100323F0DB
:406A40000F0302F00F0E1033BEF1030F1944034421D90E4674461D1F56F8047B043C032C45F8047FF8D8AEF1040424F0030404342344214402F0030252B1013B0A4411F8EA
:406A8000014B914203F8014FF9D1F0BD0346F3E7F0BD0346F1E77246EEE700BF70B5084C06460025084611461A462560F9F7CAFB431C00D070BD2368002BFBD0336070BDF2
:406AC000408AFF1F2DE9F04F174683B00D46002900F0E280814607F10B04FFF791F855F8043C162C23F00306A5F108084BD810221446A7424CD8964251DADFF8A4B308EB3D
:406B00000601DBF80800884200F0D380486820F0010E8E44DEF804E01EF0010F54D120F003003044904280F2BD80DB0700F1908055F8083CC3EB080ADAF8043023F003036D
:406B400000EB030E964549DB5746CB688968321FCB60996057F8081FDAF80C30242ACB60996000F23381132A40F2FA802B681B2ACAF808306B68CAF80C3000F23B810835D1
:406B80000AF11003EDE024F00704002C2246B0DA0C230020C9F8003003B0BDE8F08F2F46321B0F2A03F0010340D83343C8F804304644736843F0010373604846FFF722F825
:406BC000384603B0BDE8F08FD90741D455F8083CC3EB080ADAF8043023F003033344934236DB5746DAF80C1057F8080F321F242AC160886000F2F580132A40F2F08029680E
:406C00001B2ACAF808106968CAF80C1000F2078108350AF1100229681E4611606968D0465160AB689360DAF80430B9E708EB0401234342F00100C8F804300A4448605368E2
:406C4000083143F0010353604846FEF78BFBB4E739464846FEF704FD07460028ADD055F8043CA0F1080123F001024244914200F0A680321F242A00F29380132A65D8034645
:406C80002A46116819605168596092689A6029464846FEF767FB90E7114603B0BDE8F04FFEF7DEBCCA6889682F46CA600646916076E7416804F1100021F00301314481426D
:406CC0005ADADB07C4D455F8083CC3EB080ADAF8043023F0030301EB030C60453FF77EAF5746DAF80C3057F8081F321F242ACB60996000F2B680132A40F2A7802B681B2AF9
:406D0000CAF808306B68CAF80C3000F2B38008350AF110032A681A606A685A60AA689A60C4EB0C030AEB040243F00103CBF808205360DAF80430484603F001031C43CAF83A
:406D40000440FEF75FFF38463BE72B681B2A03606B68436028D800F1080305F1080290E73B462A6876461A606A68D0465A60AA689A60DAF8043013E70B1B08EB040243F06F
:406D80000103CBF80820536055F8043C484603F001031C4345F8044CFEF734FF284610E72946FFF717FE72E7AB68242A8360EB68C3602BD000F1100305F1100261E750F882
:406DC000042C2F4622F003021644E9E6294638467646D046FFF7FEFDDAF80430E0E63A4619E7294638461E46D046FFF7F3FDDAF80430D5E6AB68242ACAF81030EB68CAF82C
:406E0000143018D010350AF11803AAE72A6900F118030261696905F11802416131E7A968242ACAF81010E968CAF814100FD010350AF11802EFE62A690AF12003CAF818206B
:406E40006A691835CAF81C208BE73B4662E729690AF12002CAF8181069691835CAF81C10D9E629463846CDF804C0FFF7B3FDDDF804C055E7AB68242ACAF81030EB68CAF8EA
:406E8000143003D010350AF1180343E72A690AF12003CAF818206A691835CAF81C2039E7B085FF1F70B50D461446064610B1836B002B48D0A289A36991B20807A36038D551
:406EC0002369002B35D08904EDB215D522686169D31A8B421CDA0133A168501C0139A1602060157062699A421AD0A389DB0701D50A2D15D0284670BD616E42F4005221F43B
:406F00000051A281226861666169D31A8B42E2DB30462146FEF724F940B922680123DBE730462146FEF71CF90028E3D04FF0FF3070BD30462146FDF711F80028F6D1A289A2
:406F4000236991B2BFE7FEF79FF9B3E72DE9F041054686B01E460C46A1B1104B1746D3F80080FEF7FFFA0096034621463A462846C047431C03D100228A2332602B6006B0A4
:406F8000BDE8F081054B1F68FEF7ECFA009603462246284603A9B847EBE700BFC089FF1F21B1FF2A04D80A7001207047084670478A2303604FF0FF30704700BF4FEA410213
:406FC00012F5001215D211D56FF47873B3EB625212D94FEAC12343F0004343EA505311F0004F23FA02F018BF404270474FF00000704750EA013005D111F0004008BF6FF0B0
:40700000004070474FF00000704700BF53B94AB9002908BF00281CBF4FF0FF314FF0FF30FBF7A4B982B0EC462DE90050FBF786F9DDF804E002B00CBC704700BF024B5822CB
:407040001A604FF0FF307047408AFF1F024B58221A604FF0FF307047408AFF1F024B58221A600020704700BF408AFF1F024B58221A604FF0FF307047408AFF1F000000002E
:40708000F0B2FF7F01000000566F6C74733A2025660A00002564202564202564202564200D0A0000C84900401900004F00403000405100403000000001400010001401401D
:4070C000000800400140000A004C01400002005001402000605200407408004806000000430000002881FF1F30303030303030303030303030303030494E4600696E6600DD
:407100004E414E006E616E0030313233343536373839414243444546000000003031323334353637383961626364656600000000286E756C6C290000300000002020202075
:40714000202020202020202020202020496E66696E697479000000004E614E00504F5349580000002E00000005000000190000007D00000000000000000000000000F03FBD
:40718000000000000000244000000000000059400000000000408F40000000000088C34000000000006AF8400000000080842E4100000000D01263410000000084D797416A
:4071C0000000000065CDCD41000000205FA00242000000E876483742000000A2941A6D42000040E59C30A2420000901EC4BCD64200003426F56B0C430080E03779C3414353
:4072000000A0D8855734764300C84E676DC1AB43003D9160E458E143408CB5781DAF154450EFE2D6E41A4B4492D54D06CFF08044F64AE1C7022DB544B49DD9794378EA446B
